{
  "contractName": "MultiSigWallet",
  "abi": [
    {
      "constant": true,
      "inputs": [
        {
          "name": "",
          "type": "uint256"
        }
      ],
      "name": "owners",
      "outputs": [
        {
          "name": "",
          "type": "address"
        }
      ],
      "payable": false,
      "stateMutability": "view",
      "type": "function"
    },
    {
      "constant": true,
      "inputs": [
        {
          "name": "",
          "type": "address"
        }
      ],
      "name": "isOwner",
      "outputs": [
        {
          "name": "",
          "type": "bool"
        }
      ],
      "payable": false,
      "stateMutability": "view",
      "type": "function"
    },
    {
      "constant": true,
      "inputs": [
        {
          "name": "",
          "type": "uint256"
        }
      ],
      "name": "transactions",
      "outputs": [
        {
          "name": "to",
          "type": "address"
        },
        {
          "name": "value",
          "type": "uint256"
        },
        {
          "name": "data",
          "type": "bytes"
        },
        {
          "name": "executed",
          "type": "bool"
        },
        {
          "name": "confirmationsNr",
          "type": "uint256"
        }
      ],
      "payable": false,
      "stateMutability": "view",
      "type": "function"
    },
    {
      "constant": true,
      "inputs": [
        {
          "name": "",
          "type": "address"
        }
      ],
      "name": "funds",
      "outputs": [
        {
          "name": "",
          "type": "uint256"
        }
      ],
      "payable": false,
      "stateMutability": "view",
      "type": "function"
    },
    {
      "constant": true,
      "inputs": [],
      "name": "confirmationsRequired",
      "outputs": [
        {
          "name": "",
          "type": "uint256"
        }
      ],
      "payable": false,
      "stateMutability": "view",
      "type": "function"
    },
    {
      "inputs": [
        {
          "name": "_owners",
          "type": "address[]"
        },
        {
          "name": "_confirmationsRequired",
          "type": "uint256"
        }
      ],
      "payable": false,
      "stateMutability": "nonpayable",
      "type": "constructor"
    },
    {
      "anonymous": false,
      "inputs": [
        {
          "indexed": false,
          "name": "txIndex",
          "type": "uint256"
        },
        {
          "indexed": false,
          "name": "creator",
          "type": "address"
        },
        {
          "indexed": false,
          "name": "to",
          "type": "address"
        },
        {
          "indexed": false,
          "name": "value",
          "type": "uint256"
        }
      ],
      "name": "TransactionSubmitted",
      "type": "event"
    },
    {
      "anonymous": false,
      "inputs": [
        {
          "indexed": false,
          "name": "txIndex",
          "type": "uint256"
        },
        {
          "indexed": false,
          "name": "confirmedBy",
          "type": "address"
        }
      ],
      "name": "TransactionConfirmed",
      "type": "event"
    },
    {
      "anonymous": false,
      "inputs": [
        {
          "indexed": false,
          "name": "to",
          "type": "address"
        },
        {
          "indexed": false,
          "name": "value",
          "type": "uint256"
        },
        {
          "indexed": false,
          "name": "executedBy",
          "type": "address"
        }
      ],
      "name": "TransactionExecuted",
      "type": "event"
    },
    {
      "anonymous": false,
      "inputs": [
        {
          "indexed": false,
          "name": "txIndex",
          "type": "uint256"
        },
        {
          "indexed": false,
          "name": "revokedBy",
          "type": "address"
        }
      ],
      "name": "ConfirmationRevoked",
      "type": "event"
    },
    {
      "anonymous": false,
      "inputs": [
        {
          "indexed": false,
          "name": "from",
          "type": "address"
        },
        {
          "indexed": false,
          "name": "value",
          "type": "uint256"
        },
        {
          "indexed": false,
          "name": "balance",
          "type": "uint256"
        }
      ],
      "name": "Deposit",
      "type": "event"
    },
    {
      "constant": false,
      "inputs": [
        {
          "name": "_to",
          "type": "address"
        },
        {
          "name": "_value",
          "type": "uint256"
        },
        {
          "name": "_data",
          "type": "bytes"
        }
      ],
      "name": "submitTransaction",
      "outputs": [],
      "payable": false,
      "stateMutability": "nonpayable",
      "type": "function"
    },
    {
      "constant": false,
      "inputs": [
        {
          "name": "_txIndex",
          "type": "uint256"
        }
      ],
      "name": "confirmTransaction",
      "outputs": [],
      "payable": false,
      "stateMutability": "nonpayable",
      "type": "function"
    },
    {
      "constant": false,
      "inputs": [
        {
          "name": "_txIndex",
          "type": "uint256"
        }
      ],
      "name": "executeTransaction",
      "outputs": [],
      "payable": false,
      "stateMutability": "nonpayable",
      "type": "function"
    },
    {
      "constant": false,
      "inputs": [
        {
          "name": "_txIndex",
          "type": "uint256"
        }
      ],
      "name": "revokeConfirmation",
      "outputs": [],
      "payable": false,
      "stateMutability": "nonpayable",
      "type": "function"
    },
    {
      "constant": true,
      "inputs": [
        {
          "name": "_txIndex",
          "type": "uint256"
        }
      ],
      "name": "isConfirmed",
      "outputs": [
        {
          "name": "",
          "type": "bool"
        }
      ],
      "payable": false,
      "stateMutability": "view",
      "type": "function"
    },
    {
      "constant": true,
      "inputs": [],
      "name": "transactionCount",
      "outputs": [
        {
          "name": "",
          "type": "uint256"
        }
      ],
      "payable": false,
      "stateMutability": "view",
      "type": "function"
    },
    {
      "constant": false,
      "inputs": [],
      "name": "deposit",
      "outputs": [
        {
          "name": "balance",
          "type": "uint256"
        }
      ],
      "payable": true,
      "stateMutability": "payable",
      "type": "function"
    },
    {
      "constant": false,
      "inputs": [],
      "name": "retrieveFunds",
      "outputs": [],
      "payable": false,
      "stateMutability": "nonpayable",
      "type": "function"
    },
    {
      "constant": true,
      "inputs": [],
      "name": "balance",
      "outputs": [
        {
          "name": "",
          "type": "uint256"
        }
      ],
      "payable": false,
      "stateMutability": "view",
      "type": "function"
    }
  ],
  "bytecode": "0x60806040523480156200001157600080fd5b506040516200214c3803806200214c833981018060405260408110156200003757600080fd5b8101908080516401000000008111156200005057600080fd5b828101905060208101848111156200006757600080fd5b81518560208202830111640100000000821117156200008557600080fd5b505092919060200180519060200190929190505050600082511162000112576040517f08c379a000000000000000000000000000000000000000000000000000000000815260040180806020018281038252600f8152602001807f6f776e657273207265717569726564000000000000000000000000000000000081525060200191505060405180910390fd5b600081118015620001235750815181105b62000196576040517f08c379a000000000000000000000000000000000000000000000000000000000815260040180806020018281038252601c8152602001807f696e76616c696420636f6e6669726d6174696f6e73206e756d6265720000000081525060200191505060405180910390fd5b60008090505b82518110156200041f57600073ffffffffffffffffffffffffffffffffffffffff16838281518110620001cb57fe5b602002602001015173ffffffffffffffffffffffffffffffffffffffff1614156200025e576040517f08c379a000000000000000000000000000000000000000000000000000000000815260040180806020018281038252600d8152602001807f696e76616c6964206f776e65720000000000000000000000000000000000000081525060200191505060405180910390fd5b60001515600360008584815181106200027357fe5b602002602001015173ffffffffffffffffffffffffffffffffffffffff1673ffffffffffffffffffffffffffffffffffffffff16815260200190815260200160002060009054906101000a900460ff1615151462000339576040517f08c379a00000000000000000000000000000000000000000000000000000000081526004018080602001828103825260148152602001807f6f776e657220616c72656164792065786973747300000000000000000000000081525060200191505060405180910390fd5b60008382815181106200034857fe5b602002602001015190506001600360008373ffffffffffffffffffffffffffffffffffffffff1673ffffffffffffffffffffffffffffffffffffffff16815260200190815260200160002060006101000a81548160ff02191690831515021790555060008190806001815401808255809150509060018203906000526020600020016000909192909190916101000a81548173ffffffffffffffffffffffffffffffffffffffff021916908373ffffffffffffffffffffffffffffffffffffffff160217905550505080806001019150506200019c565b50806001819055505050611d1380620004396000396000f3fe6080604052600436106100dd5760003560e01c8063b77bf6001161007f578063d0e30db011610059578063d0e30db0146104ee578063e2ae93fb1461050c578063e8b2c24314610571578063ee22610b1461059c576100dd565b8063b77bf60014610396578063c01a8c84146103c1578063c6427474146103fc576100dd565b806361b20d8c116100bb57806361b20d8c14610201578063784547a7146102185780639ace38c21461026b578063b69ef8a81461036b576100dd565b8063025e7c27146100e257806320ea8d861461015d5780632f54bf6e14610198575b600080fd5b3480156100ee57600080fd5b5061011b6004803603602081101561010557600080fd5b81019080803590602001909291905050506105d7565b604051808273ffffffffffffffffffffffffffffffffffffffff1673ffffffffffffffffffffffffffffffffffffffff16815260200191505060405180910390f35b34801561016957600080fd5b506101966004803603602081101561018057600080fd5b8101908080359060200190929190505050610613565b005b3480156101a457600080fd5b506101e7600480360360208110156101bb57600080fd5b81019080803573ffffffffffffffffffffffffffffffffffffffff1690602001909291905050506109d0565b604051808215151515815260200191505060405180910390f35b34801561020d57600080fd5b506102166109f0565b005b34801561022457600080fd5b506102516004803603602081101561023b57600080fd5b8101908080359060200190929190505050610b44565b604051808215151515815260200191505060405180910390f35b34801561027757600080fd5b506102a46004803603602081101561028e57600080fd5b8101908080359060200190929190505050610cf8565b604051808673ffffffffffffffffffffffffffffffffffffffff1673ffffffffffffffffffffffffffffffffffffffff1681526020018581526020018060200184151515158152602001838152602001828103825285818151815260200191508051906020019080838360005b8381101561032c578082015181840152602081019050610311565b50505050905090810190601f1680156103595780820380516001836020036101000a031916815260200191505b50965050505050505060405180910390f35b34801561037757600080fd5b50610380610e00565b6040518082815260200191505060405180910390f35b3480156103a257600080fd5b506103ab610ee5565b6040518082815260200191505060405180910390f35b3480156103cd57600080fd5b506103fa600480360360208110156103e457600080fd5b8101908080359060200190929190505050610fb8565b005b34801561040857600080fd5b506104ec6004803603606081101561041f57600080fd5b81019080803573ffffffffffffffffffffffffffffffffffffffff169060200190929190803590602001909291908035906020019064010000000081111561046657600080fd5b82018360208201111561047857600080fd5b8035906020019184600183028401116401000000008311171561049a57600080fd5b91908080601f016020809104026020016040519081016040528093929190818152602001838380828437600081840152601f19601f820116905080830192505050505050509192919290505050611392565b005b6104f6611646565b6040518082815260200191505060405180910390f35b34801561051857600080fd5b5061055b6004803603602081101561052f57600080fd5b81019080803573ffffffffffffffffffffffffffffffffffffffff1690602001909291905050506117b1565b6040518082815260200191505060405180910390f35b34801561057d57600080fd5b506105866117c9565b6040518082815260200191505060405180910390f35b3480156105a857600080fd5b506105d5600480360360208110156105bf57600080fd5b81019080803590602001909291905050506117cf565b005b600081815481106105e457fe5b906000526020600020016000915054906101000a900473ffffffffffffffffffffffffffffffffffffffff1681565b60011515600360003373ffffffffffffffffffffffffffffffffffffffff1673ffffffffffffffffffffffffffffffffffffffff16815260200190815260200160002060009054906101000a900460ff161515146106d9576040517f08c379a00000000000000000000000000000000000000000000000000000000081526004018080602001828103825260148152602001807f796f7520617265206e6f7420616e206f776e657200000000000000000000000081525060200191505060405180910390fd5b806002805490508110610754576040517f08c379a00000000000000000000000000000000000000000000000000000000081526004018080602001828103825260188152602001807f7472616e73616374696f6e20646f65736e74206578697374000000000000000081525060200191505060405180910390fd5b81600015156002828154811061076657fe5b906000526020600020906006020160030160009054906101000a900460ff161515146107fa576040517f08c379a000000000000000000000000000000000000000000000000000000000815260040180806020018281038252601c8152602001807f7472616e73616374696f6e20616c72656164792065786563757465640000000081525060200191505060405180910390fd5b600115156002848154811061080b57fe5b906000526020600020906006020160040160003373ffffffffffffffffffffffffffffffffffffffff1673ffffffffffffffffffffffffffffffffffffffff16815260200190815260200160002060009054906101000a900460ff161515146108bf576040517f08c379a0000000000000000000000000000000000000000000000000000000008152600401808060200182810382526025815260200180611cc36025913960400191505060405180910390fd5b6000600284815481106108ce57fe5b906000526020600020906006020160040160003373ffffffffffffffffffffffffffffffffffffffff1673ffffffffffffffffffffffffffffffffffffffff16815260200190815260200160002060006101000a81548160ff02191690831515021790555060016002848154811061094257fe5b9060005260206000209060060201600501600082825403925050819055507fdd7f1999a4389ea99f79c84df2162a8e32e72dd35838b19e4094bf0357c1b62e8333604051808381526020018273ffffffffffffffffffffffffffffffffffffffff1673ffffffffffffffffffffffffffffffffffffffff1681526020019250505060405180910390a1505050565b60036020528060005260406000206000915054906101000a900460ff1681565b60011515600360003373ffffffffffffffffffffffffffffffffffffffff1673ffffffffffffffffffffffffffffffffffffffff16815260200190815260200160002060009054906101000a900460ff16151514610ab6576040517f08c379a00000000000000000000000000000000000000000000000000000000081526004018080602001828103825260148152602001807f796f7520617265206e6f7420616e206f776e657200000000000000000000000081525060200191505060405180910390fd5b6000600460003373ffffffffffffffffffffffffffffffffffffffff1673ffffffffffffffffffffffffffffffffffffffff1681526020019081526020016000205490503373ffffffffffffffffffffffffffffffffffffffff166108fc829081150290604051600060405180830381858888f19350505050158015610b40573d6000803e3d6000fd5b5050565b600060011515600360003373ffffffffffffffffffffffffffffffffffffffff1673ffffffffffffffffffffffffffffffffffffffff16815260200190815260200160002060009054906101000a900460ff16151514610c0c576040517f08c379a00000000000000000000000000000000000000000000000000000000081526004018080602001828103825260148152602001807f796f7520617265206e6f7420616e206f776e657200000000000000000000000081525060200191505060405180910390fd5b816002805490508110610c87576040517f08c379a00000000000000000000000000000000000000000000000000000000081526004018080602001828103825260188152602001807f7472616e73616374696f6e20646f65736e74206578697374000000000000000081525060200191505060405180910390fd5b60028381548110610c9457fe5b906000526020600020906006020160040160003373ffffffffffffffffffffffffffffffffffffffff1673ffffffffffffffffffffffffffffffffffffffff16815260200190815260200160002060009054906101000a900460ff16915050919050565b60028181548110610d0557fe5b90600052602060002090600602016000915090508060000160009054906101000a900473ffffffffffffffffffffffffffffffffffffffff1690806001015490806002018054600181600116156101000203166002900480601f016020809104026020016040519081016040528092919081815260200182805460018160011615610100020316600290048015610ddd5780601f10610db257610100808354040283529160200191610ddd565b820191906000526020600020905b815481529060010190602001808311610dc057829003601f168201915b5050505050908060030160009054906101000a900460ff16908060050154905085565b600060011515600360003373ffffffffffffffffffffffffffffffffffffffff1673ffffffffffffffffffffffffffffffffffffffff16815260200190815260200160002060009054906101000a900460ff16151514610ec8576040517f08c379a00000000000000000000000000000000000000000000000000000000081526004018080602001828103825260148152602001807f796f7520617265206e6f7420616e206f776e657200000000000000000000000081525060200191505060405180910390fd5b3073ffffffffffffffffffffffffffffffffffffffff1631905090565b600060011515600360003373ffffffffffffffffffffffffffffffffffffffff1673ffffffffffffffffffffffffffffffffffffffff16815260200190815260200160002060009054906101000a900460ff16151514610fad576040517f08c379a00000000000000000000000000000000000000000000000000000000081526004018080602001828103825260148152602001807f796f7520617265206e6f7420616e206f776e657200000000000000000000000081525060200191505060405180910390fd5b600280549050905090565b60011515600360003373ffffffffffffffffffffffffffffffffffffffff1673ffffffffffffffffffffffffffffffffffffffff16815260200190815260200160002060009054906101000a900460ff1615151461107e576040517f08c379a00000000000000000000000000000000000000000000000000000000081526004018080602001828103825260148152602001807f796f7520617265206e6f7420616e206f776e657200000000000000000000000081525060200191505060405180910390fd5b8060028054905081106110f9576040517f08c379a00000000000000000000000000000000000000000000000000000000081526004018080602001828103825260188152602001807f7472616e73616374696f6e20646f65736e74206578697374000000000000000081525060200191505060405180910390fd5b81600015156002828154811061110b57fe5b906000526020600020906006020160030160009054906101000a900460ff1615151461119f576040517f08c379a000000000000000000000000000000000000000000000000000000000815260040180806020018281038252601c8152602001807f7472616e73616374696f6e20616c72656164792065786563757465640000000081525060200191505060405180910390fd5b60001515600284815481106111b057fe5b906000526020600020906006020160040160003373ffffffffffffffffffffffffffffffffffffffff1673ffffffffffffffffffffffffffffffffffffffff16815260200190815260200160002060009054906101000a900460ff16151514611281576040517f08c379a000000000000000000000000000000000000000000000000000000000815260040180806020018281038252601d8152602001807f7472616e73616374696f6e20616c726561647920636f6e6669726d656400000081525060200191505060405180910390fd5b60016002848154811061129057fe5b906000526020600020906006020160040160003373ffffffffffffffffffffffffffffffffffffffff1673ffffffffffffffffffffffffffffffffffffffff16815260200190815260200160002060006101000a81548160ff02191690831515021790555060016002848154811061130457fe5b9060005260206000209060060201600501600082825401925050819055507f15c2f311c9e0f53b50388279894aeff029a3457884a6601e924fca879e12adcc8333604051808381526020018273ffffffffffffffffffffffffffffffffffffffff1673ffffffffffffffffffffffffffffffffffffffff1681526020019250505060405180910390a1505050565b60011515600360003373ffffffffffffffffffffffffffffffffffffffff1673ffffffffffffffffffffffffffffffffffffffff16815260200190815260200160002060009054906101000a900460ff16151514611458576040517f08c379a00000000000000000000000000000000000000000000000000000000081526004018080602001828103825260148152602001807f796f7520617265206e6f7420616e206f776e657200000000000000000000000081525060200191505060405180910390fd5b6000600280549050905061146a611bd6565b84816000019073ffffffffffffffffffffffffffffffffffffffff16908173ffffffffffffffffffffffffffffffffffffffff16815250508381602001818152505082816040018190525060008160600190151590811515815250506002819080600181540180825580915050906001820390600052602060002090600602016000909192909190915060008201518160000160006101000a81548173ffffffffffffffffffffffffffffffffffffffff021916908373ffffffffffffffffffffffffffffffffffffffff160217905550602082015181600101556040820151816002019080519060200190611561929190611c1d565b5060608201518160030160006101000a81548160ff0219169083151502179055506080820151816005015550505061159882610fb8565b7f753dcda37efe0bc3675e04e24d1fb08b70681f14675eed4b6e7978495caf2ca082338787604051808581526020018473ffffffffffffffffffffffffffffffffffffffff1673ffffffffffffffffffffffffffffffffffffffff1681526020018373ffffffffffffffffffffffffffffffffffffffff1673ffffffffffffffffffffffffffffffffffffffff16815260200182815260200194505050505060405180910390a15050505050565b60008034116116bd576040517f08c379a00000000000000000000000000000000000000000000000000000000081526004018080602001828103825260198152602001807f796f75206d7573742073656e64206d6f7265207468616e20300000000000000081525060200191505060405180910390fd5b34600460003373ffffffffffffffffffffffffffffffffffffffff1673ffffffffffffffffffffffffffffffffffffffff168152602001908152602001600020600082825401925050819055507f90890809c654f11d6e72a28fa60149770a0d11ec6c92319d6ceb2bb0a4ea1a1533343073ffffffffffffffffffffffffffffffffffffffff1631604051808473ffffffffffffffffffffffffffffffffffffffff1673ffffffffffffffffffffffffffffffffffffffff168152602001838152602001828152602001935050505060405180910390a13073ffffffffffffffffffffffffffffffffffffffff1631905090565b60046020528060005260406000206000915090505481565b60015481565b60011515600360003373ffffffffffffffffffffffffffffffffffffffff1673ffffffffffffffffffffffffffffffffffffffff16815260200190815260200160002060009054906101000a900460ff16151514611895576040517f08c379a00000000000000000000000000000000000000000000000000000000081526004018080602001828103825260148152602001807f796f7520617265206e6f7420616e206f776e657200000000000000000000000081525060200191505060405180910390fd5b806002805490508110611910576040517f08c379a00000000000000000000000000000000000000000000000000000000081526004018080602001828103825260188152602001807f7472616e73616374696f6e20646f65736e74206578697374000000000000000081525060200191505060405180910390fd5b81600015156002828154811061192257fe5b906000526020600020906006020160030160009054906101000a900460ff161515146119b6576040517f08c379a000000000000000000000000000000000000000000000000000000000815260040180806020018281038252601c8152602001807f7472616e73616374696f6e20616c72656164792065786563757465640000000081525060200191505060405180910390fd5b600154600284815481106119c657fe5b9060005260206000209060060201600501541015611a4c576040517f08c379a00000000000000000000000000000000000000000000000000000000081526004018080602001828103825260188152602001807f6e6f7420656e6f75676820636f6e6669726d6174696f6e73000000000000000081525060200191505060405180910390fd5b600060028481548110611a5b57fe5b906000526020600020906006020160000160009054906101000a900473ffffffffffffffffffffffffffffffffffffffff169050600060028581548110611a9e57fe5b9060005260206000209060060201600101549050600160028681548110611ac157fe5b906000526020600020906006020160030160006101000a81548160ff0219169083151502179055508173ffffffffffffffffffffffffffffffffffffffff166108fc829081150290604051600060405180830381858888f19350505050158015611b2f573d6000803e3d6000fd5b507f9bb4afe45e53d785b26e5e7d61cf2e8c4dcdb2c4d3489dea97d8514cbfcb23cd828233604051808473ffffffffffffffffffffffffffffffffffffffff1673ffffffffffffffffffffffffffffffffffffffff1681526020018381526020018273ffffffffffffffffffffffffffffffffffffffff1673ffffffffffffffffffffffffffffffffffffffff168152602001935050505060405180910390a15050505050565b6040518060a00160405280600073ffffffffffffffffffffffffffffffffffffffff1681526020016000815260200160608152602001600015158152602001600081525090565b828054600181600116156101000203166002900490600052602060002090601f016020900481019282601f10611c5e57805160ff1916838001178555611c8c565b82800160010185558215611c8c579182015b82811115611c8b578251825591602001919060010190611c70565b5b509050611c999190611c9d565b5090565b611cbf91905b80821115611cbb576000816000905550600101611ca3565b5090565b9056fe796f7520686176656e7420636f6e6669726d65642074686973207472616e73616374696f6ea165627a7a723058205f3b87eabcfdfcc81bdb183439b36cda004257d9b9a396ec7ce71535b8b20a6f0029",
  "source": "pragma solidity 0.5.8;\r\n\r\ncontract MultiSigWallet {\r\n    address[] public owners;\r\n    uint public confirmationsRequired;\r\n\r\n    struct Transaction {\r\n        address payable to;\r\n        uint256 value;\r\n        bytes data;\r\n        bool executed;\r\n        mapping(address => bool) isConfirmed;\r\n        uint256 confirmationsNr;\r\n    }\r\n\r\n    Transaction[] public transactions;\r\n\r\n    mapping(address => bool) public isOwner;\r\n    mapping(address => uint256) public funds;\r\n\r\n    modifier onlyOwner() {\r\n        require(isOwner[msg.sender] == true, 'you are not an owner');\r\n        _;\r\n    }\r\n    modifier txExists(uint _txIndex) {\r\n        require(_txIndex < transactions.length, 'transaction doesnt exist');\r\n        _;\r\n    }\r\n    modifier notExecuted(uint _txIndex) {\r\n        require(transactions[_txIndex].executed == false, 'transaction already executed');\r\n        _;\r\n    }\r\n\r\n    event TransactionSubmitted(uint256 txIndex, address creator, address to, uint256 value);\r\n    event TransactionConfirmed(uint256 txIndex, address confirmedBy);\r\n    event TransactionExecuted(address to, uint256 value, address executedBy);\r\n    event ConfirmationRevoked(uint256 txIndex, address revokedBy);\r\n    event Deposit(address from, uint256 value, uint256 balance);\r\n\r\n    \r\n    \r\n    constructor(address[] memory _owners, uint _confirmationsRequired) public {\r\n        require(_owners.length > 0, 'owners required');\r\n        require(_confirmationsRequired > 0 && _confirmationsRequired < _owners.length, 'invalid confirmations number');\r\n\r\n        for (uint i=0; i < _owners.length; i++) {\r\n            require(_owners[i] != address(0), 'invalid owner');\r\n            require(isOwner[_owners[i]] == false, 'owner already exists' );\r\n            \r\n            address owner = _owners[i];\r\n            isOwner[owner] = true;\r\n            owners.push(owner);\r\n        }\r\n\r\n        confirmationsRequired = _confirmationsRequired;\r\n    }\r\n\r\n    function submitTransaction(address payable _to, uint256 _value, bytes memory _data) public onlyOwner {\r\n        \r\n        uint256 _txIndex = transactions.length;\r\n\r\n        Transaction memory transaction;\r\n\r\n        transaction.to = _to;\r\n        transaction.value = _value;\r\n        transaction.data = _data;\r\n        transaction.executed = false;\r\n\r\n        transactions.push(transaction);\r\n        \r\n        /*transactions.push(Transaction({\r\n            to: _to,\r\n            value: _value,\r\n            data: _data,\r\n            executed: false,\r\n            confirmationsNr: 1\r\n        }));*/\r\n        confirmTransaction(_txIndex);\r\n\r\n       emit TransactionSubmitted(_txIndex, msg.sender, _to, _value);\r\n    }\r\n\r\n    function confirmTransaction(uint256 _txIndex) public onlyOwner() txExists(_txIndex) notExecuted(_txIndex) {\r\n        require(transactions[_txIndex].isConfirmed[msg.sender] == false, 'transaction already confirmed');\r\n\r\n        transactions[_txIndex].isConfirmed[msg.sender] = true;\r\n        transactions[_txIndex].confirmationsNr += 1;\r\n\r\n        emit TransactionConfirmed(_txIndex, msg.sender);\r\n    }\r\n\r\n    function executeTransaction(uint256 _txIndex) public onlyOwner() txExists(_txIndex) notExecuted(_txIndex) {\r\n        require(transactions[_txIndex].confirmationsNr >= confirmationsRequired, 'not enough confirmations');\r\n\r\n        address payable receiver = transactions[_txIndex].to;\r\n        uint256 value = transactions[_txIndex].value;\r\n\r\n        transactions[_txIndex].executed = true;\r\n        receiver.transfer(value);\r\n\r\n        emit TransactionExecuted(receiver, value, msg.sender);\r\n    }\r\n\r\n    function revokeConfirmation(uint256 _txIndex) public onlyOwner() txExists(_txIndex) notExecuted(_txIndex) {\r\n        require(transactions[_txIndex].isConfirmed[msg.sender] == true, 'you havent confirmed this transaction');\r\n\r\n        transactions[_txIndex].isConfirmed[msg.sender] = false;\r\n        transactions[_txIndex].confirmationsNr -= 1;\r\n\r\n        emit ConfirmationRevoked(_txIndex, msg.sender);\r\n    }\r\n    \r\n    function isConfirmed(uint256 _txIndex) public view onlyOwner() txExists(_txIndex) returns (bool) {\r\n        return transactions[_txIndex].isConfirmed[msg.sender];\r\n    }\r\n    \r\n    function transactionCount() public view onlyOwner() returns(uint256) {\r\n        return transactions.length;\r\n    }\r\n    \r\n    function deposit() payable external returns(uint256 balance) {\r\n        require(msg.value > 0, 'you must send more than 0');\r\n        funds[msg.sender] += msg.value;\r\n        emit Deposit(msg.sender, msg.value, address(this).balance);\r\n        return address(this).balance;\r\n    }\r\n    \r\n    function retrieveFunds() public onlyOwner() {\r\n        uint256 value = funds[msg.sender];\r\n        msg.sender.transfer(value);\r\n    }\r\n    \r\n    function balance() public view onlyOwner() returns(uint256) {\r\n        return address(this).balance;\r\n    }\r\n}",
  "sourcePath": "C:/Users/Admin/Documents/Ethereum course 201/wallet/multi-sig-wallet/contracts/MultiSigWallet.sol",
  "compiler": {
    "name": "solc",
    "version": "0.5.8+commit.23d335f2.Emscripten.clang"
  },
  "schemaVersion": "3.0.16",
  "updatedAt": "2020-12-16T00:46:21.947Z",
  "devdoc": {
    "methods": {}
  },
  "userdoc": {
    "methods": {}
  }
}